{
  "_format": "hh-sol-artifact-1",
  "contractName": "PlayerFactory",
  "sourceName": "contracts/player.sol",
  "abi": [
    {
      "inputs": [
        {
          "internalType": "enum Subscription.Faction",
          "name": "_faction",
          "type": "uint8"
        }
      ],
      "name": "_createAccount",
      "outputs": [],
      "stateMutability": "nonpayable",
      "type": "function"
    },
    {
      "inputs": [
        {
          "internalType": "enum PlayerFactory.AllianceRace",
          "name": "_race",
          "type": "uint8"
        },
        {
          "internalType": "enum PlayerFactory.Class",
          "name": "_class",
          "type": "uint8"
        },
        {
          "internalType": "enum PlayerFactory.Specialization",
          "name": "_spec",
          "type": "uint8"
        },
        {
          "internalType": "enum PlayerFactory.Gender",
          "name": "_gender",
          "type": "uint8"
        }
      ],
      "name": "_createAllianceCharacter",
      "outputs": [],
      "stateMutability": "nonpayable",
      "type": "function"
    },
    {
      "inputs": [
        {
          "internalType": "enum PlayerFactory.HordeRace",
          "name": "_race",
          "type": "uint8"
        },
        {
          "internalType": "enum PlayerFactory.Class",
          "name": "_class",
          "type": "uint8"
        },
        {
          "internalType": "enum PlayerFactory.Specialization",
          "name": "_spec",
          "type": "uint8"
        },
        {
          "internalType": "enum PlayerFactory.Gender",
          "name": "_gender",
          "type": "uint8"
        }
      ],
      "name": "_createHordeCharacter",
      "outputs": [],
      "stateMutability": "nonpayable",
      "type": "function"
    },
    {
      "inputs": [],
      "name": "_subscribe",
      "outputs": [],
      "stateMutability": "payable",
      "type": "function"
    },
    {
      "inputs": [
        {
          "internalType": "address",
          "name": "",
          "type": "address"
        },
        {
          "internalType": "uint256",
          "name": "",
          "type": "uint256"
        }
      ],
      "name": "alliancePlayerToCharacters",
      "outputs": [
        {
          "internalType": "enum PlayerFactory.AllianceRace",
          "name": "allianceRace",
          "type": "uint8"
        },
        {
          "internalType": "enum PlayerFactory.Class",
          "name": "class",
          "type": "uint8"
        },
        {
          "internalType": "enum PlayerFactory.Specialization",
          "name": "spec",
          "type": "uint8"
        },
        {
          "internalType": "enum PlayerFactory.Gender",
          "name": "gender",
          "type": "uint8"
        }
      ],
      "stateMutability": "view",
      "type": "function"
    },
    {
      "inputs": [
        {
          "internalType": "address",
          "name": "",
          "type": "address"
        },
        {
          "internalType": "uint256",
          "name": "",
          "type": "uint256"
        }
      ],
      "name": "hordePlayerToCharacters",
      "outputs": [
        {
          "internalType": "enum PlayerFactory.HordeRace",
          "name": "hordeRace",
          "type": "uint8"
        },
        {
          "internalType": "enum PlayerFactory.Class",
          "name": "class",
          "type": "uint8"
        },
        {
          "internalType": "enum PlayerFactory.Specialization",
          "name": "spec",
          "type": "uint8"
        },
        {
          "internalType": "enum PlayerFactory.Gender",
          "name": "gender",
          "type": "uint8"
        }
      ],
      "stateMutability": "view",
      "type": "function"
    },
    {
      "inputs": [
        {
          "internalType": "address",
          "name": "",
          "type": "address"
        }
      ],
      "name": "playerToFaction",
      "outputs": [
        {
          "internalType": "enum Subscription.Faction",
          "name": "",
          "type": "uint8"
        }
      ],
      "stateMutability": "view",
      "type": "function"
    },
    {
      "inputs": [
        {
          "internalType": "address",
          "name": "",
          "type": "address"
        }
      ],
      "name": "subscribers",
      "outputs": [
        {
          "internalType": "bool",
          "name": "",
          "type": "bool"
        }
      ],
      "stateMutability": "view",
      "type": "function"
    },
    {
      "inputs": [],
      "name": "viewAllianceCharsOfPlayer",
      "outputs": [
        {
          "components": [
            {
              "internalType": "enum PlayerFactory.AllianceRace",
              "name": "allianceRace",
              "type": "uint8"
            },
            {
              "internalType": "enum PlayerFactory.Class",
              "name": "class",
              "type": "uint8"
            },
            {
              "internalType": "enum PlayerFactory.Specialization",
              "name": "spec",
              "type": "uint8"
            },
            {
              "internalType": "enum PlayerFactory.Gender",
              "name": "gender",
              "type": "uint8"
            }
          ],
          "internalType": "struct PlayerFactory.AllianceCharacter[]",
          "name": "",
          "type": "tuple[]"
        }
      ],
      "stateMutability": "view",
      "type": "function"
    },
    {
      "inputs": [],
      "name": "viewHordeCharsOfPlayer",
      "outputs": [
        {
          "components": [
            {
              "internalType": "enum PlayerFactory.HordeRace",
              "name": "hordeRace",
              "type": "uint8"
            },
            {
              "internalType": "enum PlayerFactory.Class",
              "name": "class",
              "type": "uint8"
            },
            {
              "internalType": "enum PlayerFactory.Specialization",
              "name": "spec",
              "type": "uint8"
            },
            {
              "internalType": "enum PlayerFactory.Gender",
              "name": "gender",
              "type": "uint8"
            }
          ],
          "internalType": "struct PlayerFactory.HordeCharacter[]",
          "name": "",
          "type": "tuple[]"
        }
      ],
      "stateMutability": "view",
      "type": "function"
    }
  ],
  "bytecode": "0x608060405266095626ee78400060035534801561001b57600080fd5b5033600260006101000a81548173ffffffffffffffffffffffffffffffffffffffff021916908373ffffffffffffffffffffffffffffffffffffffff160217905550611e558061006c6000396000f3fe6080604052600436106100905760003560e01c80635b1459c4116100595780635b1459c4146101595780637adc7c2514610196578063848981ad146101d65780638b807f76146101ff578063dde50fda1461022a57610090565b8062a825c71461009557806321bad257146100c057806330437b1d146100e957806349dbf9be146100f35780635745ae281461011c575b600080fd5b3480156100a157600080fd5b506100aa61026a565b6040516100b79190611a0d565b60405180910390f35b3480156100cc57600080fd5b506100e760048036038101906100e29190611715565b610646565b005b6100f161079c565b005b3480156100ff57600080fd5b5061011a6004803603810190610115919061173e565b6108b3565b005b34801561012857600080fd5b50610143600480360381019061013e919061164d565b610ca0565b6040516101509190611a2f565b60405180910390f35b34801561016557600080fd5b50610180600480360381019061017b919061164d565b610cc0565b60405161018d9190611a8f565b60405180910390f35b3480156101a257600080fd5b506101bd60048036038101906101b89190611676565b610ce0565b6040516101cd9493929190611a4a565b60405180910390f35b3480156101e257600080fd5b506101fd60048036038101906101f891906116b2565b610d5d565b005b34801561020b57600080fd5b5061021461114b565b60405161022191906119eb565b60405180910390f35b34801561023657600080fd5b50610251600480360381019061024c9190611676565b611528565b6040516102619493929190611aaa565b60405180910390f35b6060336002808111156102a6577f4e487b7100000000000000000000000000000000000000000000000000000000600052602160045260246000fd5b600160008373ffffffffffffffffffffffffffffffffffffffff1673ffffffffffffffffffffffffffffffffffffffff16815260200190815260200160002060009054906101000a900460ff16600281111561032b577f4e487b7100000000000000000000000000000000000000000000000000000000600052602160045260246000fd5b1461033557600080fd5b33600115156000808373ffffffffffffffffffffffffffffffffffffffff1673ffffffffffffffffffffffffffffffffffffffff16815260200190815260200160002060009054906101000a900460ff1615151461039257600080fd5b600560003373ffffffffffffffffffffffffffffffffffffffff1673ffffffffffffffffffffffffffffffffffffffff168152602001908152602001600020805480602002602001604051908101604052809291908181526020016000905b8282101561063b578382906000526020600020016040518060800160405290816000820160009054906101000a900460ff16600481111561045b577f4e487b7100000000000000000000000000000000000000000000000000000000600052602160045260246000fd5b6004811115610493577f4e487b7100000000000000000000000000000000000000000000000000000000600052602160045260246000fd5b81526020016000820160019054906101000a900460ff1660088111156104e2577f4e487b7100000000000000000000000000000000000000000000000000000000600052602160045260246000fd5b600881111561051a577f4e487b7100000000000000000000000000000000000000000000000000000000600052602160045260246000fd5b81526020016000820160029054906101000a900460ff166002811115610569577f4e487b7100000000000000000000000000000000000000000000000000000000600052602160045260246000fd5b60028111156105a1577f4e487b7100000000000000000000000000000000000000000000000000000000600052602160045260246000fd5b81526020016000820160039054906101000a900460ff1660018111156105f0577f4e487b7100000000000000000000000000000000000000000000000000000000600052602160045260246000fd5b6001811115610628577f4e487b7100000000000000000000000000000000000000000000000000000000600052602160045260246000fd5b81525050815260200190600101906103f1565b505050509250505090565b60006002811115610680577f4e487b7100000000000000000000000000000000000000000000000000000000600052602160045260246000fd5b600160003373ffffffffffffffffffffffffffffffffffffffff1673ffffffffffffffffffffffffffffffffffffffff16815260200190815260200160002060009054906101000a900460ff166002811115610705577f4e487b7100000000000000000000000000000000000000000000000000000000600052602160045260246000fd5b14156107995780600160003373ffffffffffffffffffffffffffffffffffffffff1673ffffffffffffffffffffffffffffffffffffffff16815260200190815260200160002060006101000a81548160ff02191690836002811115610793577f4e487b7100000000000000000000000000000000000000000000000000000000600052602160045260246000fd5b02179055505b50565b600015156000803373ffffffffffffffffffffffffffffffffffffffff1673ffffffffffffffffffffffffffffffffffffffff16815260200190815260200160002060009054906101000a900460ff1615151480156107fd57506003543410155b61080657600080fd5b60016000803373ffffffffffffffffffffffffffffffffffffffff1673ffffffffffffffffffffffffffffffffffffffff16815260200190815260200160002060006101000a81548160ff0219169083151502179055503373ffffffffffffffffffffffffffffffffffffffff166108fc600354346108859190611b61565b9081150290604051600060405180830381858888f193505050501580156108b0573d6000803e3d6000fd5b50565b33600115156000808373ffffffffffffffffffffffffffffffffffffffff1673ffffffffffffffffffffffffffffffffffffffff16815260200190815260200160002060009054906101000a900460ff1615151461091057600080fd5b3360028081111561094a577f4e487b7100000000000000000000000000000000000000000000000000000000600052602160045260246000fd5b600160008373ffffffffffffffffffffffffffffffffffffffff1673ffffffffffffffffffffffffffffffffffffffff16815260200190815260200160002060009054906101000a900460ff1660028111156109cf577f4e487b7100000000000000000000000000000000000000000000000000000000600052602160045260246000fd5b146109d957600080fd5b600560003373ffffffffffffffffffffffffffffffffffffffff1673ffffffffffffffffffffffffffffffffffffffff1681526020019081526020016000206040518060800160405280886004811115610a5c577f4e487b7100000000000000000000000000000000000000000000000000000000600052602160045260246000fd5b8152602001876008811115610a9a577f4e487b7100000000000000000000000000000000000000000000000000000000600052602160045260246000fd5b8152602001866002811115610ad8577f4e487b7100000000000000000000000000000000000000000000000000000000600052602160045260246000fd5b8152602001856001811115610b16577f4e487b7100000000000000000000000000000000000000000000000000000000600052602160045260246000fd5b8152509080600181540180825580915050600190039060005260206000200160009091909190915060008201518160000160006101000a81548160ff02191690836004811115610b8f577f4e487b7100000000000000000000000000000000000000000000000000000000600052602160045260246000fd5b021790555060208201518160000160016101000a81548160ff02191690836008811115610be5577f4e487b7100000000000000000000000000000000000000000000000000000000600052602160045260246000fd5b021790555060408201518160000160026101000a81548160ff02191690836002811115610c3b577f4e487b7100000000000000000000000000000000000000000000000000000000600052602160045260246000fd5b021790555060608201518160000160036101000a81548160ff02191690836001811115610c91577f4e487b7100000000000000000000000000000000000000000000000000000000600052602160045260246000fd5b02179055505050505050505050565b60006020528060005260406000206000915054906101000a900460ff1681565b60016020528060005260406000206000915054906101000a900460ff1681565b60046020528160005260406000208181548110610cfc57600080fd5b90600052602060002001600091509150508060000160009054906101000a900460ff16908060000160019054906101000a900460ff16908060000160029054906101000a900460ff16908060000160039054906101000a900460ff16905084565b33600115156000808373ffffffffffffffffffffffffffffffffffffffff1673ffffffffffffffffffffffffffffffffffffffff16815260200190815260200160002060009054906101000a900460ff16151514610dba57600080fd5b3360016002811115610df5577f4e487b7100000000000000000000000000000000000000000000000000000000600052602160045260246000fd5b600160008373ffffffffffffffffffffffffffffffffffffffff1673ffffffffffffffffffffffffffffffffffffffff16815260200190815260200160002060009054906101000a900460ff166002811115610e7a577f4e487b7100000000000000000000000000000000000000000000000000000000600052602160045260246000fd5b14610e8457600080fd5b600460003373ffffffffffffffffffffffffffffffffffffffff1673ffffffffffffffffffffffffffffffffffffffff1681526020019081526020016000206040518060800160405280886004811115610f07577f4e487b7100000000000000000000000000000000000000000000000000000000600052602160045260246000fd5b8152602001876008811115610f45577f4e487b7100000000000000000000000000000000000000000000000000000000600052602160045260246000fd5b8152602001866002811115610f83577f4e487b7100000000000000000000000000000000000000000000000000000000600052602160045260246000fd5b8152602001856001811115610fc1577f4e487b7100000000000000000000000000000000000000000000000000000000600052602160045260246000fd5b8152509080600181540180825580915050600190039060005260206000200160009091909190915060008201518160000160006101000a81548160ff0219169083600481111561103a577f4e487b7100000000000000000000000000000000000000000000000000000000600052602160045260246000fd5b021790555060208201518160000160016101000a81548160ff02191690836008811115611090577f4e487b7100000000000000000000000000000000000000000000000000000000600052602160045260246000fd5b021790555060408201518160000160026101000a81548160ff021916908360028111156110e6577f4e487b7100000000000000000000000000000000000000000000000000000000600052602160045260246000fd5b021790555060608201518160000160036101000a81548160ff0219169083600181111561113c577f4e487b7100000000000000000000000000000000000000000000000000000000600052602160045260246000fd5b02179055505050505050505050565b60603360016002811115611188577f4e487b7100000000000000000000000000000000000000000000000000000000600052602160045260246000fd5b600160008373ffffffffffffffffffffffffffffffffffffffff1673ffffffffffffffffffffffffffffffffffffffff16815260200190815260200160002060009054906101000a900460ff16600281111561120d577f4e487b7100000000000000000000000000000000000000000000000000000000600052602160045260246000fd5b1461121757600080fd5b33600115156000808373ffffffffffffffffffffffffffffffffffffffff1673ffffffffffffffffffffffffffffffffffffffff16815260200190815260200160002060009054906101000a900460ff1615151461127457600080fd5b600460003373ffffffffffffffffffffffffffffffffffffffff1673ffffffffffffffffffffffffffffffffffffffff168152602001908152602001600020805480602002602001604051908101604052809291908181526020016000905b8282101561151d578382906000526020600020016040518060800160405290816000820160009054906101000a900460ff16600481111561133d577f4e487b7100000000000000000000000000000000000000000000000000000000600052602160045260246000fd5b6004811115611375577f4e487b7100000000000000000000000000000000000000000000000000000000600052602160045260246000fd5b81526020016000820160019054906101000a900460ff1660088111156113c4577f4e487b7100000000000000000000000000000000000000000000000000000000600052602160045260246000fd5b60088111156113fc577f4e487b7100000000000000000000000000000000000000000000000000000000600052602160045260246000fd5b81526020016000820160029054906101000a900460ff16600281111561144b577f4e487b7100000000000000000000000000000000000000000000000000000000600052602160045260246000fd5b6002811115611483577f4e487b7100000000000000000000000000000000000000000000000000000000600052602160045260246000fd5b81526020016000820160039054906101000a900460ff1660018111156114d2577f4e487b7100000000000000000000000000000000000000000000000000000000600052602160045260246000fd5b600181111561150a577f4e487b7100000000000000000000000000000000000000000000000000000000600052602160045260246000fd5b81525050815260200190600101906112d3565b505050509250505090565b6005602052816000526040600020818154811061154457600080fd5b90600052602060002001600091509150508060000160009054906101000a900460ff16908060000160019054906101000a900460ff16908060000160029054906101000a900460ff16908060000160039054906101000a900460ff16905084565b6000813590506115b481611d91565b92915050565b6000813590506115c981611da8565b92915050565b6000813590506115de81611db8565b92915050565b6000813590506115f381611dc8565b92915050565b60008135905061160881611dd8565b92915050565b60008135905061161d81611de8565b92915050565b60008135905061163281611df8565b92915050565b60008135905061164781611e08565b92915050565b60006020828403121561165f57600080fd5b600061166d848285016115a5565b91505092915050565b6000806040838503121561168957600080fd5b6000611697858286016115a5565b92505060206116a885828601611638565b9150509250929050565b600080600080608085870312156116c857600080fd5b60006116d6878288016115ba565b94505060206116e7878288016115cf565b93505060406116f887828801611623565b9250506060611709878288016115f9565b91505092959194509250565b60006020828403121561172757600080fd5b6000611735848285016115e4565b91505092915050565b6000806000806080858703121561175457600080fd5b60006117628782880161160e565b9450506020611773878288016115cf565b935050604061178487828801611623565b9250506060611795878288016115f9565b91505092959194509250565b60006117ad8383611941565b60808301905092915050565b60006117c58383611996565b60808301905092915050565b60006117dc82611b0f565b6117e68185611b3f565b93506117f183611aef565b8060005b8381101561182257815161180988826117a1565b975061181483611b25565b9250506001810190506117f5565b5085935050505092915050565b600061183a82611b1a565b6118448185611b50565b935061184f83611aff565b8060005b8381101561188057815161186788826117b9565b975061187283611b32565b925050600181019050611853565b5085935050505092915050565b61189681611ba7565b82525050565b6118a581611c4f565b82525050565b6118b481611c4f565b82525050565b6118c381611c61565b82525050565b6118d281611c61565b82525050565b6118e181611c73565b82525050565b6118f081611c85565b82525050565b6118ff81611c85565b82525050565b61190e81611c97565b82525050565b61191d81611c97565b82525050565b61192c81611ca9565b82525050565b61193b81611ca9565b82525050565b608082016000820151611957600085018261189c565b50602082015161196a60208501826118ba565b50604082015161197d6040850182611923565b50606082015161199060608501826118e7565b50505050565b6080820160008201516119ac6000850182611905565b5060208201516119bf60208501826118ba565b5060408201516119d26040850182611923565b5060608201516119e560608501826118e7565b50505050565b60006020820190508181036000830152611a0581846117d1565b905092915050565b60006020820190508181036000830152611a27818461182f565b905092915050565b6000602082019050611a44600083018461188d565b92915050565b6000608082019050611a5f60008301876118ab565b611a6c60208301866118c9565b611a796040830185611932565b611a8660608301846118f6565b95945050505050565b6000602082019050611aa460008301846118d8565b92915050565b6000608082019050611abf6000830187611914565b611acc60208301866118c9565b611ad96040830185611932565b611ae660608301846118f6565b95945050505050565b6000819050602082019050919050565b6000819050602082019050919050565b600081519050919050565b600081519050919050565b6000602082019050919050565b6000602082019050919050565b600082825260208201905092915050565b600082825260208201905092915050565b6000611b6c82611c45565b9150611b7783611c45565b925082821015611b8a57611b89611cbb565b5b828203905092915050565b6000611ba082611c25565b9050919050565b60008115159050919050565b6000819050611bc182611d19565b919050565b6000819050611bd482611d2d565b919050565b6000819050611be782611d41565b919050565b6000819050611bfa82611d55565b919050565b6000819050611c0d82611d69565b919050565b6000819050611c2082611d7d565b919050565b600073ffffffffffffffffffffffffffffffffffffffff82169050919050565b6000819050919050565b6000611c5a82611bb3565b9050919050565b6000611c6c82611bc6565b9050919050565b6000611c7e82611bd9565b9050919050565b6000611c9082611bec565b9050919050565b6000611ca282611bff565b9050919050565b6000611cb482611c12565b9050919050565b7f4e487b7100000000000000000000000000000000000000000000000000000000600052601160045260246000fd5b7f4e487b7100000000000000000000000000000000000000000000000000000000600052602160045260246000fd5b60058110611d2a57611d29611cea565b5b50565b60098110611d3e57611d3d611cea565b5b50565b60038110611d5257611d51611cea565b5b50565b60028110611d6657611d65611cea565b5b50565b60058110611d7a57611d79611cea565b5b50565b60038110611d8e57611d8d611cea565b5b50565b611d9a81611b95565b8114611da557600080fd5b50565b60058110611db557600080fd5b50565b60098110611dc557600080fd5b50565b60038110611dd557600080fd5b50565b60028110611de557600080fd5b50565b60058110611df557600080fd5b50565b60038110611e0557600080fd5b50565b611e1181611c45565b8114611e1c57600080fd5b5056fea2646970667358221220e5e39f6e2c85925bd3074444722836a848584630ca9faeb37cbb8752bc37065264736f6c63430008000033",
  "linkReferences": {},
  "deployedLinkReferences": {}
}