{
  "_format": "hh-sol-artifact-1",
  "contractName": "Subscription",
  "sourceName": "contracts/subscription.sol",
  "abi": [
    {
      "inputs": [],
      "stateMutability": "nonpayable",
      "type": "constructor"
    },
    {
      "inputs": [
        {
          "internalType": "enum Subscription.Faction",
          "name": "_faction",
          "type": "uint8"
        }
      ],
      "name": "_createAccount",
      "outputs": [],
      "stateMutability": "nonpayable",
      "type": "function"
    },
    {
      "inputs": [],
      "name": "_subscribe",
      "outputs": [],
      "stateMutability": "payable",
      "type": "function"
    },
    {
      "inputs": [
        {
          "internalType": "address",
          "name": "",
          "type": "address"
        }
      ],
      "name": "playerToFaction",
      "outputs": [
        {
          "internalType": "enum Subscription.Faction",
          "name": "",
          "type": "uint8"
        }
      ],
      "stateMutability": "view",
      "type": "function"
    },
    {
      "inputs": [
        {
          "internalType": "address",
          "name": "",
          "type": "address"
        }
      ],
      "name": "subscribers",
      "outputs": [
        {
          "internalType": "bool",
          "name": "",
          "type": "bool"
        }
      ],
      "stateMutability": "view",
      "type": "function"
    }
  ],
  "bytecode": "0x608060405266095626ee78400060035534801561001b57600080fd5b5033600260006101000a81548173ffffffffffffffffffffffffffffffffffffffff021916908373ffffffffffffffffffffffffffffffffffffffff1602179055506105de8061006c6000396000f3fe60806040526004361061003f5760003560e01c806321bad2571461004457806330437b1d1461006d5780635745ae28146100775780635b1459c4146100b4575b600080fd5b34801561005057600080fd5b5061006b600480360381019061006691906103f1565b6100f1565b005b610075610247565b005b34801561008357600080fd5b5061009e600480360381019061009991906103c8565b61035e565b6040516100ab9190610438565b60405180910390f35b3480156100c057600080fd5b506100db60048036038101906100d691906103c8565b61037e565b6040516100e89190610453565b60405180910390f35b6000600281111561012b577f4e487b7100000000000000000000000000000000000000000000000000000000600052602160045260246000fd5b600160003373ffffffffffffffffffffffffffffffffffffffff1673ffffffffffffffffffffffffffffffffffffffff16815260200190815260200160002060009054906101000a900460ff1660028111156101b0577f4e487b7100000000000000000000000000000000000000000000000000000000600052602160045260246000fd5b14156102445780600160003373ffffffffffffffffffffffffffffffffffffffff1673ffffffffffffffffffffffffffffffffffffffff16815260200190815260200160002060006101000a81548160ff0219169083600281111561023e577f4e487b7100000000000000000000000000000000000000000000000000000000600052602160045260246000fd5b02179055505b50565b600015156000803373ffffffffffffffffffffffffffffffffffffffff1673ffffffffffffffffffffffffffffffffffffffff16815260200190815260200160002060009054906101000a900460ff1615151480156102a857506003543410155b6102b157600080fd5b60016000803373ffffffffffffffffffffffffffffffffffffffff1673ffffffffffffffffffffffffffffffffffffffff16815260200190815260200160002060006101000a81548160ff0219169083151502179055503373ffffffffffffffffffffffffffffffffffffffff166108fc60035434610330919061046e565b9081150290604051600060405180830381858888f1935050505015801561035b573d6000803e3d6000fd5b50565b60006020528060005260406000206000915054906101000a900460ff1681565b60016020528060005260406000206000915054906101000a900460ff1681565b6000813590506103ad81610581565b92915050565b6000813590506103c281610598565b92915050565b6000602082840312156103da57600080fd5b60006103e88482850161039e565b91505092915050565b60006020828403121561040357600080fd5b6000610411848285016103b3565b91505092915050565b610423816104b4565b82525050565b610432816104fd565b82525050565b600060208201905061044d600083018461041a565b92915050565b60006020820190506104686000830184610429565b92915050565b6000610479826104f3565b9150610484836104f3565b9250828210156104975761049661050f565b5b828203905092915050565b60006104ad826104d3565b9050919050565b60008115159050919050565b60008190506104ce8261056d565b919050565b600073ffffffffffffffffffffffffffffffffffffffff82169050919050565b6000819050919050565b6000610508826104c0565b9050919050565b7f4e487b7100000000000000000000000000000000000000000000000000000000600052601160045260246000fd5b7f4e487b7100000000000000000000000000000000000000000000000000000000600052602160045260246000fd5b6003811061057e5761057d61053e565b5b50565b61058a816104a2565b811461059557600080fd5b50565b600381106105a557600080fd5b5056fea26469706673582212208a12d6428c1b6de8d8cbe206a4a3f20a74c9943e8e36af45742fd3d352db908d64736f6c63430008000033",
  "linkReferences": {},
  "deployedLinkReferences": {}
}